{
  "_format": "hh-sol-artifact-1",
  "contractName": "DonationManager",
  "sourceName": "contracts/DonationManager.sol",
  "abi": [
    {
      "inputs": [
        {
          "internalType": "address",
          "name": "_ngoRegistry",
          "type": "address"
        },
        {
          "internalType": "address",
          "name": "_usdtAddress",
          "type": "address"
        }
      ],
      "stateMutability": "nonpayable",
      "type": "constructor"
    },
    {
      "anonymous": false,
      "inputs": [
        {
          "indexed": false,
          "internalType": "uint256",
          "name": "campaignId",
          "type": "uint256"
        }
      ],
      "name": "CampaignCompleted",
      "type": "event"
    },
    {
      "anonymous": false,
      "inputs": [
        {
          "indexed": false,
          "internalType": "uint256",
          "name": "campaignId",
          "type": "uint256"
        },
        {
          "indexed": false,
          "internalType": "address",
          "name": "ngo",
          "type": "address"
        },
        {
          "indexed": false,
          "internalType": "uint256",
          "name": "target",
          "type": "uint256"
        }
      ],
      "name": "CampaignCreated",
      "type": "event"
    },
    {
      "anonymous": false,
      "inputs": [
        {
          "indexed": false,
          "internalType": "uint256",
          "name": "campaignId",
          "type": "uint256"
        },
        {
          "indexed": false,
          "internalType": "address",
          "name": "donor",
          "type": "address"
        },
        {
          "indexed": false,
          "internalType": "uint256",
          "name": "amount",
          "type": "uint256"
        }
      ],
      "name": "DonationReceived",
      "type": "event"
    },
    {
      "anonymous": false,
      "inputs": [
        {
          "indexed": false,
          "internalType": "uint256",
          "name": "campaignId",
          "type": "uint256"
        },
        {
          "indexed": false,
          "internalType": "uint256",
          "name": "amount",
          "type": "uint256"
        }
      ],
      "name": "FirstMilestoneReleased",
      "type": "event"
    },
    {
      "anonymous": false,
      "inputs": [
        {
          "indexed": false,
          "internalType": "uint256",
          "name": "campaignId",
          "type": "uint256"
        },
        {
          "indexed": false,
          "internalType": "uint256",
          "name": "milestoneIndex",
          "type": "uint256"
        },
        {
          "indexed": false,
          "internalType": "uint256",
          "name": "amount",
          "type": "uint256"
        }
      ],
      "name": "MilestoneApproved",
      "type": "event"
    },
    {
      "anonymous": false,
      "inputs": [
        {
          "indexed": false,
          "internalType": "uint256",
          "name": "campaignId",
          "type": "uint256"
        },
        {
          "indexed": false,
          "internalType": "uint256",
          "name": "milestoneIndex",
          "type": "uint256"
        },
        {
          "indexed": false,
          "internalType": "string",
          "name": "ipfsHash",
          "type": "string"
        }
      ],
      "name": "ProofSubmitted",
      "type": "event"
    },
    {
      "anonymous": false,
      "inputs": [
        {
          "indexed": false,
          "internalType": "uint256",
          "name": "campaignId",
          "type": "uint256"
        },
        {
          "indexed": false,
          "internalType": "uint256",
          "name": "amount",
          "type": "uint256"
        }
      ],
      "name": "SurplusWithdrawn",
      "type": "event"
    },
    {
      "anonymous": false,
      "inputs": [
        {
          "indexed": false,
          "internalType": "uint256",
          "name": "campaignId",
          "type": "uint256"
        },
        {
          "indexed": false,
          "internalType": "uint256",
          "name": "targetAmount",
          "type": "uint256"
        }
      ],
      "name": "TargetReached",
      "type": "event"
    },
    {
      "inputs": [],
      "name": "admin",
      "outputs": [
        {
          "internalType": "address",
          "name": "",
          "type": "address"
        }
      ],
      "stateMutability": "view",
      "type": "function"
    },
    {
      "inputs": [],
      "name": "campaignCount",
      "outputs": [
        {
          "internalType": "uint256",
          "name": "",
          "type": "uint256"
        }
      ],
      "stateMutability": "view",
      "type": "function"
    },
    {
      "inputs": [
        {
          "internalType": "uint256",
          "name": "",
          "type": "uint256"
        }
      ],
      "name": "campaigns",
      "outputs": [
        {
          "internalType": "address",
          "name": "ngo",
          "type": "address"
        },
        {
          "internalType": "uint256",
          "name": "targetAmount",
          "type": "uint256"
        },
        {
          "internalType": "uint256",
          "name": "raisedAmount",
          "type": "uint256"
        },
        {
          "internalType": "uint256",
          "name": "milestoneIndex",
          "type": "uint256"
        },
        {
          "internalType": "bool",
          "name": "isActive",
          "type": "bool"
        },
        {
          "internalType": "bool",
          "name": "firstMilestonePaid",
          "type": "bool"
        },
        {
          "internalType": "bool",
          "name": "fundingClosed",
          "type": "bool"
        }
      ],
      "stateMutability": "view",
      "type": "function"
    },
    {
      "inputs": [
        {
          "internalType": "uint256",
          "name": "targetAmount",
          "type": "uint256"
        },
        {
          "internalType": "uint256",
          "name": "m1",
          "type": "uint256"
        },
        {
          "internalType": "uint256",
          "name": "m2",
          "type": "uint256"
        },
        {
          "internalType": "uint256",
          "name": "m3",
          "type": "uint256"
        }
      ],
      "name": "createCampaign",
      "outputs": [],
      "stateMutability": "nonpayable",
      "type": "function"
    },
    {
      "inputs": [
        {
          "internalType": "uint256",
          "name": "campaignId",
          "type": "uint256"
        },
        {
          "internalType": "uint256",
          "name": "amount",
          "type": "uint256"
        }
      ],
      "name": "donate",
      "outputs": [],
      "stateMutability": "payable",
      "type": "function"
    },
    {
      "inputs": [
        {
          "internalType": "uint256",
          "name": "",
          "type": "uint256"
        },
        {
          "internalType": "address",
          "name": "",
          "type": "address"
        }
      ],
      "name": "donorAmounts",
      "outputs": [
        {
          "internalType": "uint256",
          "name": "",
          "type": "uint256"
        }
      ],
      "stateMutability": "view",
      "type": "function"
    },
    {
      "inputs": [
        {
          "internalType": "uint256",
          "name": "id",
          "type": "uint256"
        }
      ],
      "name": "getCampaign",
      "outputs": [
        {
          "internalType": "address",
          "name": "ngo",
          "type": "address"
        },
        {
          "internalType": "uint256",
          "name": "targetAmount",
          "type": "uint256"
        },
        {
          "internalType": "uint256",
          "name": "raisedAmount",
          "type": "uint256"
        },
        {
          "internalType": "uint256",
          "name": "milestoneIndex",
          "type": "uint256"
        },
        {
          "internalType": "uint256[3]",
          "name": "milestoneBudget",
          "type": "uint256[3]"
        },
        {
          "internalType": "bool[3]",
          "name": "milestoneComplete",
          "type": "bool[3]"
        },
        {
          "internalType": "bool",
          "name": "isActive",
          "type": "bool"
        },
        {
          "internalType": "bool",
          "name": "firstMilestonePaid",
          "type": "bool"
        },
        {
          "internalType": "bool",
          "name": "fundingClosed",
          "type": "bool"
        }
      ],
      "stateMutability": "view",
      "type": "function"
    },
    {
      "inputs": [
        {
          "internalType": "uint256",
          "name": "",
          "type": "uint256"
        },
        {
          "internalType": "address",
          "name": "",
          "type": "address"
        }
      ],
      "name": "hasDonated",
      "outputs": [
        {
          "internalType": "bool",
          "name": "",
          "type": "bool"
        }
      ],
      "stateMutability": "view",
      "type": "function"
    },
    {
      "inputs": [
        {
          "internalType": "uint256",
          "name": "",
          "type": "uint256"
        },
        {
          "internalType": "uint256",
          "name": "",
          "type": "uint256"
        }
      ],
      "name": "milestoneProof",
      "outputs": [
        {
          "internalType": "string",
          "name": "",
          "type": "string"
        }
      ],
      "stateMutability": "view",
      "type": "function"
    },
    {
      "inputs": [],
      "name": "ngoRegistry",
      "outputs": [
        {
          "internalType": "address",
          "name": "",
          "type": "address"
        }
      ],
      "stateMutability": "view",
      "type": "function"
    },
    {
      "inputs": [],
      "name": "reputationContract",
      "outputs": [
        {
          "internalType": "address",
          "name": "",
          "type": "address"
        }
      ],
      "stateMutability": "view",
      "type": "function"
    },
    {
      "inputs": [
        {
          "internalType": "address",
          "name": "_rep",
          "type": "address"
        }
      ],
      "name": "setReputationContract",
      "outputs": [],
      "stateMutability": "nonpayable",
      "type": "function"
    },
    {
      "inputs": [
        {
          "internalType": "uint256",
          "name": "campaignId",
          "type": "uint256"
        },
        {
          "internalType": "string",
          "name": "ipfsHash",
          "type": "string"
        }
      ],
      "name": "submitProof",
      "outputs": [],
      "stateMutability": "nonpayable",
      "type": "function"
    },
    {
      "inputs": [],
      "name": "usdtToken",
      "outputs": [
        {
          "internalType": "contract IERC20",
          "name": "",
          "type": "address"
        }
      ],
      "stateMutability": "view",
      "type": "function"
    },
    {
      "inputs": [
        {
          "internalType": "uint256",
          "name": "campaignId",
          "type": "uint256"
        }
      ],
      "name": "verifyMilestone",
      "outputs": [],
      "stateMutability": "nonpayable",
      "type": "function"
    },
    {
      "inputs": [
        {
          "internalType": "uint256",
          "name": "campaignId",
          "type": "uint256"
        }
      ],
      "name": "withdrawSurplus",
      "outputs": [],
      "stateMutability": "nonpayable",
      "type": "function"
    }
  ],
  "bytecode": "0x608060405234801561001057600080fd5b506040516134953803806134958339818101604052810190610032919061015e565b336000806101000a81548173ffffffffffffffffffffffffffffffffffffffff021916908373ffffffffffffffffffffffffffffffffffffffff16021790555081600160006101000a81548173ffffffffffffffffffffffffffffffffffffffff021916908373ffffffffffffffffffffffffffffffffffffffff16021790555080600360006101000a81548173ffffffffffffffffffffffffffffffffffffffff021916908373ffffffffffffffffffffffffffffffffffffffff160217905550505061019e565b600080fd5b600073ffffffffffffffffffffffffffffffffffffffff82169050919050565b600061012b82610100565b9050919050565b61013b81610120565b811461014657600080fd5b50565b60008151905061015881610132565b92915050565b60008060408385031215610175576101746100fb565b5b600061018385828601610149565b925050602061019485828601610149565b9150509250929050565b6132e8806101ad6000396000f3fe6080604052600436106100f35760003560e01c806394c004671161008a578063b0d1818c11610059578063b0d1818c1461033d578063ccc0bde414610366578063f851a440146103a3578063f9d0d27a146103ce576100f3565b806394c00467146102835780639584660f146102c0578063a85f3128146102e9578063a98ad46c14610312576100f3565b80635598f8cc116100c65780635598f8cc146101bd5780637274e30d1461020257806377f2e8f41461022d57806387bc142514610258576100f3565b80630cdd53f6146100f8578063141961bc146101145780631e155398146101575780632af0051014610194575b600080fd5b610112600480360381019061010d9190611c78565b6103f7565b005b34801561012057600080fd5b5061013b60048036038101906101369190611cb8565b610961565b60405161014e9796959493929190611d50565b60405180910390f35b34801561016357600080fd5b5061017e60048036038101906101799190611deb565b6109ea565b60405161018b9190611e2b565b60405180910390f35b3480156101a057600080fd5b506101bb60048036038101906101b69190611f8c565b610a19565b005b3480156101c957600080fd5b506101e460048036038101906101df9190611cb8565b610d34565b6040516101f99998979695949392919061213e565b60405180910390f35b34801561020e57600080fd5b50610217610e9a565b60405161022491906121cd565b60405180910390f35b34801561023957600080fd5b50610242610ea0565b60405161024f91906121e8565b60405180910390f35b34801561026457600080fd5b5061026d610ec6565b60405161027a91906121e8565b60405180910390f35b34801561028f57600080fd5b506102aa60048036038101906102a59190611c78565b610eec565b6040516102b79190612282565b60405180910390f35b3480156102cc57600080fd5b506102e760048036038101906102e291906122a4565b610f99565b005b3480156102f557600080fd5b50610310600480360381019061030b9190611cb8565b61106b565b005b34801561031e57600080fd5b50610327611537565b6040516103349190612330565b60405180910390f35b34801561034957600080fd5b50610364600480360381019061035f9190611cb8565b61155d565b005b34801561037257600080fd5b5061038d60048036038101906103889190611deb565b611874565b60405161039a91906121cd565b60405180910390f35b3480156103af57600080fd5b506103b8611899565b6040516103c591906121e8565b60405180910390f35b3480156103da57600080fd5b506103f560048036038101906103f0919061234b565b6118bd565b005b60006004600084815260200190815260200160002090508060080160009054906101000a900460ff1661045f576040517f08c379a0000000000000000000000000000000000000000000000000000000008152600401610456906123fe565b60405180910390fd5b600082116104a2576040517f08c379a00000000000000000000000000000000000000000000000000000000081526004016104999061246a565b60405180910390fd5b8060080160029054906101000a900460ff16156104f4576040517f08c379a00000000000000000000000000000000000000000000000000000000081526004016104eb906124d6565b60405180910390fd5b600360009054906101000a900473ffffffffffffffffffffffffffffffffffffffff1673ffffffffffffffffffffffffffffffffffffffff166323b872dd3330856040518463ffffffff1660e01b8152600401610553939291906124f6565b6020604051808303816000875af1158015610572573d6000803e3d6000fd5b505050506040513d601f19601f820116820180604052508101906105969190612559565b6105d5576040517f08c379a00000000000000000000000000000000000000000000000000000000081526004016105cc906125d2565b60405180910390fd5b6000816002015482600101546105eb9190612621565b905060008111156106865780831161061d57828260020160008282546106119190612655565b92505081905550610685565b8160010154826002018190555060018260080160026101000a81548160ff0219169083151502179055507f55e38235e3172711a1cd9fdff917de66242ced19d8436fa71b527910f5f0767b84836001015460405161067c929190612689565b60405180910390a15b5b826006600086815260200190815260200160002060003373ffffffffffffffffffffffffffffffffffffffff1673ffffffffffffffffffffffffffffffffffffffff16815260200190815260200160002060008282546106e69190612655565b9250508190555060016007600086815260200190815260200160002060003373ffffffffffffffffffffffffffffffffffffffff1673ffffffffffffffffffffffffffffffffffffffff16815260200190815260200160002060006101000a81548160ff0219169083151502179055507f0b5b4c52969ff7329ecf7ee536409fda87812b15a8622bc6e8cdeab3aee14a26843385604051610789939291906126b2565b60405180910390a18160080160019054906101000a900460ff161580156107cc5750816004016000600381106107c2576107c16126e9565b5b0154826002015410155b1561095b57600360009054906101000a900473ffffffffffffffffffffffffffffffffffffffff1673ffffffffffffffffffffffffffffffffffffffff1663a9059cbb8360000160009054906101000a900473ffffffffffffffffffffffffffffffffffffffff168460040160006003811061084b5761084a6126e9565b5b01546040518363ffffffff1660e01b815260040161086a929190612718565b6020604051808303816000875af1158015610889573d6000803e3d6000fd5b505050506040513d601f19601f820116820180604052508101906108ad9190612559565b6108ec576040517f08c379a00000000000000000000000000000000000000000000000000000000081526004016108e39061278d565b60405180910390fd5b60018260080160016101000a81548160ff0219169083151502179055507fdf6b566575ec2a8a6721413c0370894a912f14507d343c12c3f966e2f79f67998483600401600060038110610942576109416126e9565b5b0154604051610952929190612689565b60405180910390a15b50505050565b60046020528060005260406000206000915090508060000160009054906101000a900473ffffffffffffffffffffffffffffffffffffffff16908060010154908060020154908060030154908060080160009054906101000a900460ff16908060080160019054906101000a900460ff16908060080160029054906101000a900460ff16905087565b60076020528160005260406000206020528060005260406000206000915091509054906101000a900460ff1681565b60006004600084815260200190815260200160002090508060000160009054906101000a900473ffffffffffffffffffffffffffffffffffffffff1673ffffffffffffffffffffffffffffffffffffffff163373ffffffffffffffffffffffffffffffffffffffff1614610ac2576040517f08c379a0000000000000000000000000000000000000000000000000000000008152600401610ab9906127f9565b60405180910390fd5b8060080160009054906101000a900460ff16610b13576040517f08c379a0000000000000000000000000000000000000000000000000000000008152600401610b0a906123fe565b60405180910390fd5b600281600301541115610b5b576040517f08c379a0000000000000000000000000000000000000000000000000000000008152600401610b5290612865565b60405180910390fd5b80600701816003015460038110610b7557610b746126e9565b5b602091828204019190069054906101000a900460ff1615610bcb576040517f08c379a0000000000000000000000000000000000000000000000000000000008152600401610bc2906128d1565b60405180910390fd5b60008160030154148015610bed57508060080160019054906101000a900460ff165b80610c40575060008160030154118015610c3f57508060070160018260030154610c179190612621565b60038110610c2857610c276126e9565b5b602091828204019190069054906101000a900460ff165b5b610c7f576040517f08c379a0000000000000000000000000000000000000000000000000000000008152600401610c769061293d565b60405180910390fd5b81600560008581526020019081526020016000206000836003015481526020019081526020016000209081610cb49190612b5f565b50600181600701826003015460038110610cd157610cd06126e9565b5b602091828204019190066101000a81548160ff0219169083151502179055507fa0369f36b2a8975ad69f1e8b8de8b56312cbcfe25149ce1e43f83d5e612f451b83826003015484604051610d2793929190612c31565b60405180910390a1505050565b600080600080610d42611b8d565b610d4a611baf565b600080600080600460008c815260200190815260200160002090508060000160009054906101000a900473ffffffffffffffffffffffffffffffffffffffff1681600101548260020154836003015484600401856007018660080160009054906101000a900460ff168760080160019054906101000a900460ff168860080160029054906101000a900460ff1684600380602002604051908101604052809291908260038015610e0f576020028201915b815481526020019060010190808311610dfb575b5050505050945083600380602002604051908101604052809291908260038015610e73576020028201916000905b82829054906101000a900460ff16151581526020019060010190602082600001049283019260010382029150808411610e3d5790505b50505050509350995099509950995099509950995099509950509193959799909294969850565b60085481565b600160009054906101000a900473ffffffffffffffffffffffffffffffffffffffff1681565b600260009054906101000a900473ffffffffffffffffffffffffffffffffffffffff1681565b6005602052816000526040600020602052806000526040600020600091509150508054610f189061298c565b80601f0160208091040260200160405190810160405280929190818152602001828054610f449061298c565b8015610f915780601f10610f6657610100808354040283529160200191610f91565b820191906000526020600020905b815481529060010190602001808311610f7457829003601f168201915b505050505081565b60008054906101000a900473ffffffffffffffffffffffffffffffffffffffff1673ffffffffffffffffffffffffffffffffffffffff163373ffffffffffffffffffffffffffffffffffffffff1614611027576040517f08c379a000000000000000000000000000000000000000000000000000000000815260040161101e90612cbb565b60405180910390fd5b80600260006101000a81548173ffffffffffffffffffffffffffffffffffffffff021916908373ffffffffffffffffffffffffffffffffffffffff16021790555050565b600060046000838152602001908152602001600020905060008054906101000a900473ffffffffffffffffffffffffffffffffffffffff1673ffffffffffffffffffffffffffffffffffffffff163373ffffffffffffffffffffffffffffffffffffffff1614611110576040517f08c379a000000000000000000000000000000000000000000000000000000000815260040161110790612d27565b60405180910390fd5b8060080160009054906101000a900460ff16611161576040517f08c379a0000000000000000000000000000000000000000000000000000000008152600401611158906123fe565b60405180910390fd5b6002816003015411156111a9576040517f08c379a00000000000000000000000000000000000000000000000000000000081526004016111a090612d93565b60405180910390fd5b806007018160030154600381106111c3576111c26126e9565b5b602091828204019190069054906101000a900460ff16611218576040517f08c379a000000000000000000000000000000000000000000000000000000000815260040161120f90612dff565b60405180910390fd5b600281600301541015611477576000816004016001836003015461123c9190612655565b6003811061124d5761124c6126e9565b5b0154905080600360009054906101000a900473ffffffffffffffffffffffffffffffffffffffff1673ffffffffffffffffffffffffffffffffffffffff166370a08231306040518263ffffffff1660e01b81526004016112ad91906121e8565b602060405180830381865afa1580156112ca573d6000803e3d6000fd5b505050506040513d601f19601f820116820180604052508101906112ee9190612e34565b101561132f576040517f08c379a000000000000000000000000000000000000000000000000000000000815260040161132690612ead565b60405180910390fd5b600360009054906101000a900473ffffffffffffffffffffffffffffffffffffffff1673ffffffffffffffffffffffffffffffffffffffff1663a9059cbb8360000160009054906101000a900473ffffffffffffffffffffffffffffffffffffffff16836040518363ffffffff1660e01b81526004016113b0929190612718565b6020604051808303816000875af11580156113cf573d6000803e3d6000fd5b505050506040513d601f19601f820116820180604052508101906113f39190612559565b611432576040517f08c379a000000000000000000000000000000000000000000000000000000000815260040161142990612f19565b60405180910390fd5b7f6e3fd8bb18eed6833ae758e07c361bf145ce27c88bdf6d5029ddabf188d72ca68383600301548360405161146993929190612f39565b60405180910390a1506114b8565b7f6e3fd8bb18eed6833ae758e07c361bf145ce27c88bdf6d5029ddabf188d72ca682826003015460006040516114af93929190612fab565b60405180910390a15b8060030160008154809291906114cd90612fe2565b919050555060038160030154036115335760008160080160006101000a81548160ff0219169083151502179055507fbdef6a2e3aa892961a2dab48272f72f2bc1c7121eb1c0ed7e4a58e081c1e4be08260405161152a91906121cd565b60405180910390a15b5050565b600360009054906101000a900473ffffffffffffffffffffffffffffffffffffffff1681565b600060046000838152602001908152602001600020905060008054906101000a900473ffffffffffffffffffffffffffffffffffffffff1673ffffffffffffffffffffffffffffffffffffffff163373ffffffffffffffffffffffffffffffffffffffff1614611602576040517f08c379a00000000000000000000000000000000000000000000000000000000081526004016115f990612d27565b60405180910390fd5b8060080160009054906101000a900460ff1615611654576040517f08c379a000000000000000000000000000000000000000000000000000000000815260040161164b90613076565b60405180910390fd5b6000600360009054906101000a900473ffffffffffffffffffffffffffffffffffffffff1673ffffffffffffffffffffffffffffffffffffffff166370a08231306040518263ffffffff1660e01b81526004016116b191906121e8565b602060405180830381865afa1580156116ce573d6000803e3d6000fd5b505050506040513d601f19601f820116820180604052508101906116f29190612e34565b905060008111611737576040517f08c379a000000000000000000000000000000000000000000000000000000000815260040161172e906130e2565b60405180910390fd5b600360009054906101000a900473ffffffffffffffffffffffffffffffffffffffff1673ffffffffffffffffffffffffffffffffffffffff1663a9059cbb60008054906101000a900473ffffffffffffffffffffffffffffffffffffffff16836040518363ffffffff1660e01b81526004016117b4929190612718565b6020604051808303816000875af11580156117d3573d6000803e3d6000fd5b505050506040513d601f19601f820116820180604052508101906117f79190612559565b611836576040517f08c379a000000000000000000000000000000000000000000000000000000000815260040161182d9061314e565b60405180910390fd5b7f68ed98e027533eead633dd48954a97cb98c22535999e6f98fbf216b38d3a1cbe8382604051611867929190612689565b60405180910390a1505050565b6006602052816000526040600020602052806000526040600020600091509150505481565b60008054906101000a900473ffffffffffffffffffffffffffffffffffffffff1681565b600160009054906101000a900473ffffffffffffffffffffffffffffffffffffffff1673ffffffffffffffffffffffffffffffffffffffff1663087c7110336040518263ffffffff1660e01b815260040161191891906121e8565b602060405180830381865afa158015611935573d6000803e3d6000fd5b505050506040513d601f19601f820116820180604052508101906119599190612559565b611998576040517f08c379a000000000000000000000000000000000000000000000000000000000815260040161198f906131ba565b60405180910390fd5b600084116119db576040517f08c379a00000000000000000000000000000000000000000000000000000000081526004016119d290613226565b60405180910390fd5b8082846119e89190612655565b6119f29190612655565b8414611a33576040517f08c379a0000000000000000000000000000000000000000000000000000000008152600401611a2a90613292565b60405180910390fd5b60006004600060085481526020019081526020016000209050338160000160006101000a81548173ffffffffffffffffffffffffffffffffffffffff021916908373ffffffffffffffffffffffffffffffffffffffff160217905550848160010181905550600081600201819055506000816003018190555060405180606001604052808581526020018481526020018381525081600401906003611ad9929190611bd1565b5060018160080160006101000a81548160ff02191690831515021790555060008160080160016101000a81548160ff02191690831515021790555060008160080160026101000a81548160ff0219169083151502179055507f63e3678c8493a16f8ba43ae9e547231762ca04526dac2c388bd2c26d894018516008543387604051611b66939291906126b2565b60405180910390a160086000815480929190611b8190612fe2565b91905055505050505050565b6040518060600160405280600390602082028036833780820191505090505090565b6040518060600160405280600390602082028036833780820191505090505090565b8260038101928215611c00579160200282015b82811115611bff578251825591602001919060010190611be4565b5b509050611c0d9190611c11565b5090565b5b80821115611c2a576000816000905550600101611c12565b5090565b6000604051905090565b600080fd5b600080fd5b6000819050919050565b611c5581611c42565b8114611c6057600080fd5b50565b600081359050611c7281611c4c565b92915050565b60008060408385031215611c8f57611c8e611c38565b5b6000611c9d85828601611c63565b9250506020611cae85828601611c63565b9150509250929050565b600060208284031215611cce57611ccd611c38565b5b6000611cdc84828501611c63565b91505092915050565b600073ffffffffffffffffffffffffffffffffffffffff82169050919050565b6000611d1082611ce5565b9050919050565b611d2081611d05565b82525050565b611d2f81611c42565b82525050565b60008115159050919050565b611d4a81611d35565b82525050565b600060e082019050611d65600083018a611d17565b611d726020830189611d26565b611d7f6040830188611d26565b611d8c6060830187611d26565b611d996080830186611d41565b611da660a0830185611d41565b611db360c0830184611d41565b98975050505050505050565b611dc881611d05565b8114611dd357600080fd5b50565b600081359050611de581611dbf565b92915050565b60008060408385031215611e0257611e01611c38565b5b6000611e1085828601611c63565b9250506020611e2185828601611dd6565b9150509250929050565b6000602082019050611e406000830184611d41565b92915050565b600080fd5b600080fd5b6000601f19601f8301169050919050565b7f4e487b7100000000000000000000000000000000000000000000000000000000600052604160045260246000fd5b611e9982611e50565b810181811067ffffffffffffffff82111715611eb857611eb7611e61565b5b80604052505050565b6000611ecb611c2e565b9050611ed78282611e90565b919050565b600067ffffffffffffffff821115611ef757611ef6611e61565b5b611f0082611e50565b9050602081019050919050565b82818337600083830152505050565b6000611f2f611f2a84611edc565b611ec1565b905082815260208101848484011115611f4b57611f4a611e4b565b5b611f56848285611f0d565b509392505050565b600082601f830112611f7357611f72611e46565b5b8135611f83848260208601611f1c565b91505092915050565b60008060408385031215611fa357611fa2611c38565b5b6000611fb185828601611c63565b925050602083013567ffffffffffffffff811115611fd257611fd1611c3d565b5b611fde85828601611f5e565b9150509250929050565b600060039050919050565b600081905092915050565b6000819050919050565b61201181611c42565b82525050565b60006120238383612008565b60208301905092915050565b6000602082019050919050565b61204581611fe8565b61204f8184611ff3565b925061205a82611ffe565b8060005b8381101561208b5781516120728782612017565b965061207d8361202f565b92505060018101905061205e565b505050505050565b600060039050919050565b600081905092915050565b6000819050919050565b6120bc81611d35565b82525050565b60006120ce83836120b3565b60208301905092915050565b6000602082019050919050565b6120f081612093565b6120fa818461209e565b9250612105826120a9565b8060005b8381101561213657815161211d87826120c2565b9650612128836120da565b925050600181019050612109565b505050505050565b60006101a082019050612154600083018c611d17565b612161602083018b611d26565b61216e604083018a611d26565b61217b6060830189611d26565b612188608083018861203c565b61219560e08301876120e7565b6121a3610140830186611d41565b6121b1610160830185611d41565b6121bf610180830184611d41565b9a9950505050505050505050565b60006020820190506121e26000830184611d26565b92915050565b60006020820190506121fd6000830184611d17565b92915050565b600081519050919050565b600082825260208201905092915050565b60005b8381101561223d578082015181840152602081019050612222565b60008484015250505050565b600061225482612203565b61225e818561220e565b935061226e81856020860161221f565b61227781611e50565b840191505092915050565b6000602082019050818103600083015261229c8184612249565b905092915050565b6000602082840312156122ba576122b9611c38565b5b60006122c884828501611dd6565b91505092915050565b6000819050919050565b60006122f66122f16122ec84611ce5565b6122d1565b611ce5565b9050919050565b6000612308826122db565b9050919050565b600061231a826122fd565b9050919050565b61232a8161230f565b82525050565b60006020820190506123456000830184612321565b92915050565b6000806000806080858703121561236557612364611c38565b5b600061237387828801611c63565b945050602061238487828801611c63565b935050604061239587828801611c63565b92505060606123a687828801611c63565b91505092959194509250565b7f43616d706169676e20636c6f7365640000000000000000000000000000000000600082015250565b60006123e8600f8361220e565b91506123f3826123b2565b602082019050919050565b60006020820190508181036000830152612417816123db565b9050919050565b7f416d6f756e74206d757374206265203e20300000000000000000000000000000600082015250565b600061245460128361220e565b915061245f8261241e565b602082019050919050565b6000602082019050818103600083015261248381612447565b9050919050565b7f46756e64696e6720616c726561647920636f6d706c6574656400000000000000600082015250565b60006124c060198361220e565b91506124cb8261248a565b602082019050919050565b600060208201905081810360008301526124ef816124b3565b9050919050565b600060608201905061250b6000830186611d17565b6125186020830185611d17565b6125256040830184611d26565b949350505050565b61253681611d35565b811461254157600080fd5b50565b6000815190506125538161252d565b92915050565b60006020828403121561256f5761256e611c38565b5b600061257d84828501612544565b91505092915050565b7f55534454207472616e73666572206661696c6564000000000000000000000000600082015250565b60006125bc60148361220e565b91506125c782612586565b602082019050919050565b600060208201905081810360008301526125eb816125af565b9050919050565b7f4e487b7100000000000000000000000000000000000000000000000000000000600052601160045260246000fd5b600061262c82611c42565b915061263783611c42565b925082820390508181111561264f5761264e6125f2565b5b92915050565b600061266082611c42565b915061266b83611c42565b9250828201905080821115612683576126826125f2565b5b92915050565b600060408201905061269e6000830185611d26565b6126ab6020830184611d26565b9392505050565b60006060820190506126c76000830186611d26565b6126d46020830185611d17565b6126e16040830184611d26565b949350505050565b7f4e487b7100000000000000000000000000000000000000000000000000000000600052603260045260246000fd5b600060408201905061272d6000830185611d17565b61273a6020830184611d26565b9392505050565b7f4d696c6573746f6e65207472616e73666572206661696c656400000000000000600082015250565b600061277760198361220e565b915061278282612741565b602082019050919050565b600060208201905081810360008301526127a68161276a565b9050919050565b7f4f6e6c79204e474f000000000000000000000000000000000000000000000000600082015250565b60006127e360088361220e565b91506127ee826127ad565b602082019050919050565b60006020820190508181036000830152612812816127d6565b9050919050565b7f416c6c206d696c6573746f6e657320616c726561647920636f6d706c65746564600082015250565b600061284f60208361220e565b915061285a82612819565b602082019050919050565b6000602082019050818103600083015261287e81612842565b9050919050565b7f416c7265616479207375626d69747465642f7665726966696564000000000000600082015250565b60006128bb601a8361220e565b91506128c682612885565b602082019050919050565b600060208201905081810360008301526128ea816128ae565b9050919050565b7f4d696c6573746f6e652066756e6473206e6f742072656c656173656420796574600082015250565b600061292760208361220e565b9150612932826128f1565b602082019050919050565b600060208201905081810360008301526129568161291a565b9050919050565b7f4e487b7100000000000000000000000000000000000000000000000000000000600052602260045260246000fd5b600060028204905060018216806129a457607f821691505b6020821081036129b7576129b661295d565b5b50919050565b60008190508160005260206000209050919050565b60006020601f8301049050919050565b600082821b905092915050565b600060088302612a1f7fffffffffffffffffffffffffffffffffffffffffffffffffffffffffffffffff826129e2565b612a2986836129e2565b95508019841693508086168417925050509392505050565b6000612a5c612a57612a5284611c42565b6122d1565b611c42565b9050919050565b6000819050919050565b612a7683612a41565b612a8a612a8282612a63565b8484546129ef565b825550505050565b600090565b612a9f612a92565b612aaa818484612a6d565b505050565b5b81811015612ace57612ac3600082612a97565b600181019050612ab0565b5050565b601f821115612b1357612ae4816129bd565b612aed846129d2565b81016020851015612afc578190505b612b10612b08856129d2565b830182612aaf565b50505b505050565b600082821c905092915050565b6000612b3660001984600802612b18565b1980831691505092915050565b6000612b4f8383612b25565b9150826002028217905092915050565b612b6882612203565b67ffffffffffffffff811115612b8157612b80611e61565b5b612b8b825461298c565b612b96828285612ad2565b600060209050601f831160018114612bc95760008415612bb7578287015190505b612bc18582612b43565b865550612c29565b601f198416612bd7866129bd565b60005b82811015612bff57848901518255600182019150602085019450602081019050612bda565b86831015612c1c5784890151612c18601f891682612b25565b8355505b6001600288020188555050505b505050505050565b6000606082019050612c466000830186611d26565b612c536020830185611d26565b8181036040830152612c658184612249565b9050949350505050565b7f4f6e6c792061646d696e00000000000000000000000000000000000000000000600082015250565b6000612ca5600a8361220e565b9150612cb082612c6f565b602082019050919050565b60006020820190508181036000830152612cd481612c98565b9050919050565b7f41646d696e206f6e6c7900000000000000000000000000000000000000000000600082015250565b6000612d11600a8361220e565b9150612d1c82612cdb565b602082019050919050565b60006020820190508181036000830152612d4081612d04565b9050919050565b7f416c6c20646f6e65000000000000000000000000000000000000000000000000600082015250565b6000612d7d60088361220e565b9150612d8882612d47565b602082019050919050565b60006020820190508181036000830152612dac81612d70565b9050919050565b7f50726f6f66206e6f74207375626d697474656400000000000000000000000000600082015250565b6000612de960138361220e565b9150612df482612db3565b602082019050919050565b60006020820190508181036000830152612e1881612ddc565b9050919050565b600081519050612e2e81611c4c565b92915050565b600060208284031215612e4a57612e49611c38565b5b6000612e5884828501612e1f565b91505092915050565b7f496e73756666696369656e74205553445420696e20657363726f770000000000600082015250565b6000612e97601b8361220e565b9150612ea282612e61565b602082019050919050565b60006020820190508181036000830152612ec681612e8a565b9050919050565b7f5472616e73666572206661696c65640000000000000000000000000000000000600082015250565b6000612f03600f8361220e565b9150612f0e82612ecd565b602082019050919050565b60006020820190508181036000830152612f3281612ef6565b9050919050565b6000606082019050612f4e6000830186611d26565b612f5b6020830185611d26565b612f686040830184611d26565b949350505050565b6000819050919050565b6000612f95612f90612f8b84612f70565b6122d1565b611c42565b9050919050565b612fa581612f7a565b82525050565b6000606082019050612fc06000830186611d26565b612fcd6020830185611d26565b612fda6040830184612f9c565b949350505050565b6000612fed82611c42565b91507fffffffffffffffffffffffffffffffffffffffffffffffffffffffffffffffff820361301f5761301e6125f2565b5b600182019050919050565b7f43616d706169676e206e6f742066696e69736865640000000000000000000000600082015250565b600061306060158361220e565b915061306b8261302a565b602082019050919050565b6000602082019050818103600083015261308f81613053565b9050919050565b7f4e6f20737572706c757300000000000000000000000000000000000000000000600082015250565b60006130cc600a8361220e565b91506130d782613096565b602082019050919050565b600060208201905081810360008301526130fb816130bf565b9050919050565b7f5769746864726177616c206661696c6564000000000000000000000000000000600082015250565b600061313860118361220e565b915061314382613102565b602082019050919050565b600060208201905081810360008301526131678161312b565b9050919050565b7f4e474f206973204e4f5420766572696669656400000000000000000000000000600082015250565b60006131a460138361220e565b91506131af8261316e565b602082019050919050565b600060208201905081810360008301526131d381613197565b9050919050565b7f546172676574206d757374206265203e20300000000000000000000000000000600082015250565b600061321060128361220e565b915061321b826131da565b602082019050919050565b6000602082019050818103600083015261323f81613203565b9050919050565b7f4d696c6573746f6e6573206d75737420746f74616c2074617267657400000000600082015250565b600061327c601c8361220e565b915061328782613246565b602082019050919050565b600060208201905081810360008301526132ab8161326f565b905091905056fea2646970667358221220d480bed83a23ca3de9e3a3ffc5e37409aab2b959be075c29e35cf3e0e6dd9f1664736f6c634300081c0033",
  "linkReferences": {},
  "deployedLinkReferences": {}
}