{
  "_format": "hh-sol-artifact-1",
  "contractName": "ReputationManager",
  "sourceName": "contracts/ReputationManager.sol",
  "abi": [
    {
      "inputs": [
        {
          "internalType": "address",
          "name": "_donationManager",
          "type": "address"
        }
      ],
      "stateMutability": "nonpayable",
      "type": "constructor"
    },
    {
      "anonymous": false,
      "inputs": [
        {
          "indexed": false,
          "internalType": "uint256",
          "name": "campaignId",
          "type": "uint256"
        },
        {
          "indexed": false,
          "internalType": "address",
          "name": "ngo",
          "type": "address"
        },
        {
          "indexed": false,
          "internalType": "address",
          "name": "ratedBy",
          "type": "address"
        },
        {
          "indexed": false,
          "internalType": "uint256",
          "name": "stars",
          "type": "uint256"
        }
      ],
      "name": "NGORated",
      "type": "event"
    },
    {
      "anonymous": false,
      "inputs": [
        {
          "indexed": false,
          "internalType": "address",
          "name": "ngo",
          "type": "address"
        },
        {
          "indexed": false,
          "internalType": "uint256",
          "name": "newAverage",
          "type": "uint256"
        }
      ],
      "name": "ReputationUpdated",
      "type": "event"
    },
    {
      "inputs": [],
      "name": "admin",
      "outputs": [
        {
          "internalType": "address",
          "name": "",
          "type": "address"
        }
      ],
      "stateMutability": "view",
      "type": "function"
    },
    {
      "inputs": [],
      "name": "donationManager",
      "outputs": [
        {
          "internalType": "address",
          "name": "",
          "type": "address"
        }
      ],
      "stateMutability": "view",
      "type": "function"
    },
    {
      "inputs": [
        {
          "internalType": "address",
          "name": "ngo",
          "type": "address"
        }
      ],
      "name": "getReputationScore",
      "outputs": [
        {
          "internalType": "uint256",
          "name": "",
          "type": "uint256"
        }
      ],
      "stateMutability": "view",
      "type": "function"
    },
    {
      "inputs": [
        {
          "internalType": "uint256",
          "name": "",
          "type": "uint256"
        },
        {
          "internalType": "address",
          "name": "",
          "type": "address"
        }
      ],
      "name": "hasRated",
      "outputs": [
        {
          "internalType": "bool",
          "name": "",
          "type": "bool"
        }
      ],
      "stateMutability": "view",
      "type": "function"
    },
    {
      "inputs": [
        {
          "internalType": "uint256",
          "name": "campaignId",
          "type": "uint256"
        },
        {
          "internalType": "uint256",
          "name": "stars",
          "type": "uint256"
        }
      ],
      "name": "rateNGO",
      "outputs": [],
      "stateMutability": "nonpayable",
      "type": "function"
    },
    {
      "inputs": [
        {
          "internalType": "address",
          "name": "",
          "type": "address"
        }
      ],
      "name": "ratingSum",
      "outputs": [
        {
          "internalType": "uint256",
          "name": "",
          "type": "uint256"
        }
      ],
      "stateMutability": "view",
      "type": "function"
    },
    {
      "inputs": [
        {
          "internalType": "address",
          "name": "ngo",
          "type": "address"
        }
      ],
      "name": "resetRatings",
      "outputs": [],
      "stateMutability": "nonpayable",
      "type": "function"
    },
    {
      "inputs": [
        {
          "internalType": "address",
          "name": "",
          "type": "address"
        }
      ],
      "name": "totalRatings",
      "outputs": [
        {
          "internalType": "uint256",
          "name": "",
          "type": "uint256"
        }
      ],
      "stateMutability": "view",
      "type": "function"
    }
  ],
  "bytecode": "0x608060405234801561001057600080fd5b506040516112d43803806112d48339818101604052810190610032919061011c565b336000806101000a81548173ffffffffffffffffffffffffffffffffffffffff021916908373ffffffffffffffffffffffffffffffffffffffff16021790555080600160006101000a81548173ffffffffffffffffffffffffffffffffffffffff021916908373ffffffffffffffffffffffffffffffffffffffff16021790555050610149565b600080fd5b600073ffffffffffffffffffffffffffffffffffffffff82169050919050565b60006100e9826100be565b9050919050565b6100f9816100de565b811461010457600080fd5b50565b600081519050610116816100f0565b92915050565b600060208284031215610132576101316100b9565b5b600061014084828501610107565b91505092915050565b61117c806101586000396000f3fe608060405234801561001057600080fd5b50600436106100885760003560e01c80639f9528241161005b5780639f95282414610139578063aedcb72f14610155578063e8cce11514610173578063f851a440146101a357610088565b806341eeb8c21461008d57806375a67d5c146100a957806376454486146100d95780638b609dab14610109575b600080fd5b6100a760048036038101906100a291906108ed565b6101c1565b005b6100c360048036038101906100be91906108ed565b6102dc565b6040516100d09190610933565b60405180910390f35b6100f360048036038101906100ee919061097a565b6103cb565b60405161010091906109d5565b60405180910390f35b610123600480360381019061011e91906108ed565b6103fa565b6040516101309190610933565b60405180910390f35b610153600480360381019061014e91906109f0565b610412565b005b61015d61081e565b60405161016a9190610a3f565b60405180910390f35b61018d600480360381019061018891906108ed565b610844565b60405161019a9190610933565b60405180910390f35b6101ab61085c565b6040516101b89190610a3f565b60405180910390f35b60008054906101000a900473ffffffffffffffffffffffffffffffffffffffff1673ffffffffffffffffffffffffffffffffffffffff163373ffffffffffffffffffffffffffffffffffffffff161461024f576040517f08c379a000000000000000000000000000000000000000000000000000000000815260040161024690610ab7565b60405180910390fd5b6000600260008373ffffffffffffffffffffffffffffffffffffffff1673ffffffffffffffffffffffffffffffffffffffff168152602001908152602001600020819055506000600360008373ffffffffffffffffffffffffffffffffffffffff1673ffffffffffffffffffffffffffffffffffffffff1681526020019081526020016000208190555050565b600080600360008473ffffffffffffffffffffffffffffffffffffffff1673ffffffffffffffffffffffffffffffffffffffff168152602001908152602001600020540361032d57600090506103c6565b600360008373ffffffffffffffffffffffffffffffffffffffff1673ffffffffffffffffffffffffffffffffffffffff168152602001908152602001600020546064600260008573ffffffffffffffffffffffffffffffffffffffff1673ffffffffffffffffffffffffffffffffffffffff168152602001908152602001600020546103b99190610b06565b6103c39190610b77565b90505b919050565b60046020528160005260406000206020528060005260406000206000915091509054906101000a900460ff1681565b60036020528060005260406000206000915090505481565b60018110158015610424575060058111155b610463576040517f08c379a000000000000000000000000000000000000000000000000000000000815260040161045a90610bf4565b60405180910390fd5b600160009054906101000a900473ffffffffffffffffffffffffffffffffffffffff1673ffffffffffffffffffffffffffffffffffffffff16631e15539883336040518363ffffffff1660e01b81526004016104c0929190610c14565b602060405180830381865afa1580156104dd573d6000803e3d6000fd5b505050506040513d601f19601f820116820180604052508101906105019190610c69565b610540576040517f08c379a000000000000000000000000000000000000000000000000000000000815260040161053790610ce2565b60405180910390fd5b6004600083815260200190815260200160002060003373ffffffffffffffffffffffffffffffffffffffff1673ffffffffffffffffffffffffffffffffffffffff16815260200190815260200160002060009054906101000a900460ff16156105de576040517f08c379a00000000000000000000000000000000000000000000000000000000081526004016105d590610d4e565b60405180910390fd5b6000600160009054906101000a900473ffffffffffffffffffffffffffffffffffffffff1673ffffffffffffffffffffffffffffffffffffffff16635598f8cc846040518263ffffffff1660e01b815260040161063b9190610933565b6101a060405180830381865afa158015610659573d6000803e3d6000fd5b505050506040513d601f19601f8201168201806040525081019061067d9190610f90565b5050505050505050905081600260008373ffffffffffffffffffffffffffffffffffffffff1673ffffffffffffffffffffffffffffffffffffffff16815260200190815260200160002060008282546106d6919061105c565b92505081905550600360008273ffffffffffffffffffffffffffffffffffffffff1673ffffffffffffffffffffffffffffffffffffffff168152602001908152602001600020600081548092919061072d90611090565b919050555060016004600085815260200190815260200160002060003373ffffffffffffffffffffffffffffffffffffffff1673ffffffffffffffffffffffffffffffffffffffff16815260200190815260200160002060006101000a81548160ff0219169083151502179055507f9c2ee1df0167d5d5d3451b8b79adea8d04d7e527ecdc9510b5ef966fe30854d7838233856040516107d094939291906110d8565b60405180910390a17ffc577563f1b9a0461e24abef1e1fcc0d33d3d881f20b5df6dda59de4aae2c82181610803836102dc565b60405161081192919061111d565b60405180910390a1505050565b600160009054906101000a900473ffffffffffffffffffffffffffffffffffffffff1681565b60026020528060005260406000206000915090505481565b60008054906101000a900473ffffffffffffffffffffffffffffffffffffffff1681565b6000604051905090565b600080fd5b600073ffffffffffffffffffffffffffffffffffffffff82169050919050565b60006108ba8261088f565b9050919050565b6108ca816108af565b81146108d557600080fd5b50565b6000813590506108e7816108c1565b92915050565b6000602082840312156109035761090261088a565b5b6000610911848285016108d8565b91505092915050565b6000819050919050565b61092d8161091a565b82525050565b60006020820190506109486000830184610924565b92915050565b6109578161091a565b811461096257600080fd5b50565b6000813590506109748161094e565b92915050565b600080604083850312156109915761099061088a565b5b600061099f85828601610965565b92505060206109b0858286016108d8565b9150509250929050565b60008115159050919050565b6109cf816109ba565b82525050565b60006020820190506109ea60008301846109c6565b92915050565b60008060408385031215610a0757610a0661088a565b5b6000610a1585828601610965565b9250506020610a2685828601610965565b9150509250929050565b610a39816108af565b82525050565b6000602082019050610a546000830184610a30565b92915050565b600082825260208201905092915050565b7f4f6e6c792061646d696e00000000000000000000000000000000000000000000600082015250565b6000610aa1600a83610a5a565b9150610aac82610a6b565b602082019050919050565b60006020820190508181036000830152610ad081610a94565b9050919050565b7f4e487b7100000000000000000000000000000000000000000000000000000000600052601160045260246000fd5b6000610b118261091a565b9150610b1c8361091a565b9250828202610b2a8161091a565b91508282048414831517610b4157610b40610ad7565b5b5092915050565b7f4e487b7100000000000000000000000000000000000000000000000000000000600052601260045260246000fd5b6000610b828261091a565b9150610b8d8361091a565b925082610b9d57610b9c610b48565b5b828204905092915050565b7f526174696e67206d75737420626520312d350000000000000000000000000000600082015250565b6000610bde601283610a5a565b9150610be982610ba8565b602082019050919050565b60006020820190508181036000830152610c0d81610bd1565b9050919050565b6000604082019050610c296000830185610924565b610c366020830184610a30565b9392505050565b610c46816109ba565b8114610c5157600080fd5b50565b600081519050610c6381610c3d565b92915050565b600060208284031215610c7f57610c7e61088a565b5b6000610c8d84828501610c54565b91505092915050565b7f4d75737420646f6e617465206265666f726520726174696e6700000000000000600082015250565b6000610ccc601983610a5a565b9150610cd782610c96565b602082019050919050565b60006020820190508181036000830152610cfb81610cbf565b9050919050565b7f416c726561647920726174656400000000000000000000000000000000000000600082015250565b6000610d38600d83610a5a565b9150610d4382610d02565b602082019050919050565b60006020820190508181036000830152610d6781610d2b565b9050919050565b600081519050610d7d816108c1565b92915050565b600081519050610d928161094e565b92915050565b600080fd5b6000601f19601f8301169050919050565b7f4e487b7100000000000000000000000000000000000000000000000000000000600052604160045260246000fd5b610de682610d9d565b810181811067ffffffffffffffff82111715610e0557610e04610dae565b5b80604052505050565b6000610e18610880565b9050610e248282610ddd565b919050565b600067ffffffffffffffff821115610e4457610e43610dae565b5b602082029050919050565b600080fd5b6000610e67610e6284610e29565b610e0e565b90508060208402830185811115610e8157610e80610e4f565b5b835b81811015610eaa5780610e968882610d83565b845260208401935050602081019050610e83565b5050509392505050565b600082601f830112610ec957610ec8610d98565b5b6003610ed6848285610e54565b91505092915050565b600067ffffffffffffffff821115610efa57610ef9610dae565b5b602082029050919050565b6000610f18610f1384610edf565b610e0e565b90508060208402830185811115610f3257610f31610e4f565b5b835b81811015610f5b5780610f478882610c54565b845260208401935050602081019050610f34565b5050509392505050565b600082601f830112610f7a57610f79610d98565b5b6003610f87848285610f05565b91505092915050565b60008060008060008060008060006101a08a8c031215610fb357610fb261088a565b5b6000610fc18c828d01610d6e565b9950506020610fd28c828d01610d83565b9850506040610fe38c828d01610d83565b9750506060610ff48c828d01610d83565b96505060806110058c828d01610eb4565b95505060e06110168c828d01610f65565b9450506101406110288c828d01610c54565b93505061016061103a8c828d01610c54565b92505061018061104c8c828d01610c54565b9150509295985092959850929598565b60006110678261091a565b91506110728361091a565b925082820190508082111561108a57611089610ad7565b5b92915050565b600061109b8261091a565b91507fffffffffffffffffffffffffffffffffffffffffffffffffffffffffffffffff82036110cd576110cc610ad7565b5b600182019050919050565b60006080820190506110ed6000830187610924565b6110fa6020830186610a30565b6111076040830185610a30565b6111146060830184610924565b95945050505050565b60006040820190506111326000830185610a30565b61113f6020830184610924565b939250505056fea2646970667358221220352a1189efcb0b741006ebb67874bbd342cf04f41aa579e02529e8d7c98a047764736f6c634300081c0033",
  "linkReferences": {},
  "deployedLinkReferences": {}
}